{
  "_format": "hh-sol-artifact-1",
  "contractName": "LazyMarketplace",
  "sourceName": "contracts/LazyMaketplace.sol",
  "abi": [
    {
      "inputs": [
        {
          "internalType": "address",
          "name": "_payee",
          "type": "address"
        },
        {
          "internalType": "uint256",
          "name": "_percent",
          "type": "uint256"
        }
      ],
      "stateMutability": "nonpayable",
      "type": "constructor"
    },
    {
      "anonymous": false,
      "inputs": [
        {
          "indexed": false,
          "internalType": "address",
          "name": "_address",
          "type": "address"
        },
        {
          "indexed": false,
          "internalType": "uint256",
          "name": "_id",
          "type": "uint256"
        },
        {
          "indexed": false,
          "internalType": "address",
          "name": "_seller",
          "type": "address"
        },
        {
          "indexed": false,
          "internalType": "address",
          "name": "_maxBidder",
          "type": "address"
        },
        {
          "indexed": false,
          "internalType": "uint256",
          "name": "_maxBid",
          "type": "uint256"
        },
        {
          "indexed": false,
          "internalType": "uint256",
          "name": "_amount",
          "type": "uint256"
        },
        {
          "indexed": false,
          "internalType": "bool",
          "name": "_success",
          "type": "bool"
        }
      ],
      "name": "AuctionEnded",
      "type": "event"
    },
    {
      "anonymous": false,
      "inputs": [
        {
          "indexed": false,
          "internalType": "address",
          "name": "_address",
          "type": "address"
        },
        {
          "indexed": false,
          "internalType": "uint256",
          "name": "_id",
          "type": "uint256"
        },
        {
          "indexed": false,
          "internalType": "address",
          "name": "_seller",
          "type": "address"
        },
        {
          "indexed": false,
          "internalType": "address",
          "name": "_bidder",
          "type": "address"
        },
        {
          "indexed": false,
          "internalType": "uint256",
          "name": "_value",
          "type": "uint256"
        }
      ],
      "name": "BidAdded",
      "type": "event"
    },
    {
      "anonymous": false,
      "inputs": [
        {
          "indexed": false,
          "internalType": "address",
          "name": "_address",
          "type": "address"
        },
        {
          "indexed": false,
          "internalType": "uint256",
          "name": "_id",
          "type": "uint256"
        },
        {
          "indexed": false,
          "internalType": "address",
          "name": "_seller",
          "type": "address"
        },
        {
          "indexed": false,
          "internalType": "uint256",
          "name": "_amount",
          "type": "uint256"
        },
        {
          "indexed": false,
          "internalType": "uint256",
          "name": "_price",
          "type": "uint256"
        },
        {
          "indexed": false,
          "internalType": "address",
          "name": "_buyer",
          "type": "address"
        }
      ],
      "name": "Bought",
      "type": "event"
    },
    {
      "anonymous": false,
      "inputs": [
        {
          "indexed": false,
          "internalType": "address",
          "name": "_address",
          "type": "address"
        },
        {
          "indexed": false,
          "internalType": "uint256",
          "name": "_id",
          "type": "uint256"
        },
        {
          "indexed": false,
          "internalType": "address",
          "name": "_seller",
          "type": "address"
        },
        {
          "indexed": false,
          "internalType": "uint256",
          "name": "_amount",
          "type": "uint256"
        },
        {
          "indexed": false,
          "internalType": "uint256",
          "name": "_price",
          "type": "uint256"
        },
        {
          "indexed": false,
          "internalType": "enum Exchange.SaleType",
          "name": "_type",
          "type": "uint8"
        },
        {
          "indexed": false,
          "internalType": "uint256",
          "name": "_endTime",
          "type": "uint256"
        }
      ],
      "name": "ItemUpdated",
      "type": "event"
    },
    {
      "anonymous": false,
      "inputs": [
        {
          "indexed": false,
          "internalType": "address",
          "name": "_address",
          "type": "address"
        },
        {
          "indexed": false,
          "internalType": "uint256",
          "name": "_auctionId",
          "type": "uint256"
        },
        {
          "indexed": false,
          "internalType": "address",
          "name": "_seller",
          "type": "address"
        },
        {
          "indexed": false,
          "internalType": "address",
          "name": "_maxBidder",
          "type": "address"
        },
        {
          "indexed": false,
          "internalType": "uint256",
          "name": "_maxBid",
          "type": "uint256"
        },
        {
          "indexed": false,
          "internalType": "uint256",
          "name": "_amount",
          "type": "uint256"
        },
        {
          "indexed": false,
          "internalType": "bool",
          "name": "_success",
          "type": "bool"
        },
        {
          "indexed": false,
          "internalType": "uint256",
          "name": "_tokenId",
          "type": "uint256"
        }
      ],
      "name": "LazyAuctionEnded",
      "type": "event"
    },
    {
      "anonymous": false,
      "inputs": [
        {
          "indexed": false,
          "internalType": "address",
          "name": "_address",
          "type": "address"
        },
        {
          "indexed": false,
          "internalType": "uint256",
          "name": "_auctionId",
          "type": "uint256"
        },
        {
          "indexed": false,
          "internalType": "address",
          "name": "_seller",
          "type": "address"
        },
        {
          "indexed": false,
          "internalType": "address",
          "name": "_bidder",
          "type": "address"
        },
        {
          "indexed": false,
          "internalType": "uint256",
          "name": "_value",
          "type": "uint256"
        }
      ],
      "name": "LazyBidAdded",
      "type": "event"
    },
    {
      "anonymous": false,
      "inputs": [
        {
          "indexed": false,
          "internalType": "address",
          "name": "_bidder",
          "type": "address"
        },
        {
          "indexed": false,
          "internalType": "uint256",
          "name": "_value",
          "type": "uint256"
        }
      ],
      "name": "Withdrawn",
      "type": "event"
    },
    {
      "inputs": [
        {
          "internalType": "uint256",
          "name": "",
          "type": "uint256"
        }
      ],
      "name": "auctionExists",
      "outputs": [
        {
          "internalType": "bool",
          "name": "",
          "type": "bool"
        }
      ],
      "stateMutability": "view",
      "type": "function"
    },
    {
      "inputs": [
        {
          "internalType": "address",
          "name": "",
          "type": "address"
        },
        {
          "internalType": "uint256",
          "name": "",
          "type": "uint256"
        },
        {
          "internalType": "address",
          "name": "",
          "type": "address"
        }
      ],
      "name": "auctionItems",
      "outputs": [
        {
          "internalType": "uint256",
          "name": "amount",
          "type": "uint256"
        },
        {
          "internalType": "uint256",
          "name": "maxBid",
          "type": "uint256"
        },
        {
          "internalType": "address",
          "name": "maxBidder",
          "type": "address"
        },
        {
          "internalType": "uint256",
          "name": "endTime",
          "type": "uint256"
        },
        {
          "internalType": "bool",
          "name": "ended",
          "type": "bool"
        }
      ],
      "stateMutability": "view",
      "type": "function"
    },
    {
      "inputs": [
        {
          "internalType": "address",
          "name": "_address",
          "type": "address"
        },
        {
          "internalType": "uint256",
          "name": "_id",
          "type": "uint256"
        },
        {
          "internalType": "address",
          "name": "_seller",
          "type": "address"
        }
      ],
      "name": "bid",
      "outputs": [],
      "stateMutability": "payable",
      "type": "function"
    },
    {
      "inputs": [
        {
          "internalType": "address",
          "name": "_tokenAddress",
          "type": "address"
        },
        {
          "internalType": "uint256",
          "name": "_amount",
          "type": "uint256"
        },
        {
          "internalType": "address",
          "name": "_creator",
          "type": "address"
        },
        {
          "internalType": "uint256",
          "name": "_minBid",
          "type": "uint256"
        },
        {
          "internalType": "uint256",
          "name": "_endTime",
          "type": "uint256"
        },
        {
          "internalType": "string",
          "name": "_uri",
          "type": "string"
        },
        {
          "internalType": "uint256",
          "name": "_auctionId",
          "type": "uint256"
        },
        {
          "internalType": "bytes",
          "name": "_signature",
          "type": "bytes"
        }
      ],
      "name": "bidLazy",
      "outputs": [],
      "stateMutability": "payable",
      "type": "function"
    },
    {
      "inputs": [
        {
          "internalType": "address",
          "name": "_address",
          "type": "address"
        },
        {
          "internalType": "uint256",
          "name": "_id",
          "type": "uint256"
        },
        {
          "internalType": "address",
          "name": "_seller",
          "type": "address"
        },
        {
          "internalType": "uint256",
          "name": "_amount",
          "type": "uint256"
        }
      ],
      "name": "buy",
      "outputs": [],
      "stateMutability": "payable",
      "type": "function"
    },
    {
      "inputs": [
        {
          "internalType": "address",
          "name": "_tokenAddress",
          "type": "address"
        },
        {
          "internalType": "uint256",
          "name": "_amount",
          "type": "uint256"
        },
        {
          "internalType": "address",
          "name": "_creator",
          "type": "address"
        },
        {
          "internalType": "uint256",
          "name": "_unitPrice",
          "type": "uint256"
        },
        {
          "internalType": "string",
          "name": "_uri",
          "type": "string"
        },
        {
          "internalType": "bytes",
          "name": "_signature",
          "type": "bytes"
        },
        {
          "internalType": "uint256",
          "name": "_buyAmount",
          "type": "uint256"
        }
      ],
      "name": "buyLazy",
      "outputs": [],
      "stateMutability": "payable",
      "type": "function"
    },
    {
      "inputs": [
        {
          "internalType": "address",
          "name": "_address",
          "type": "address"
        },
        {
          "internalType": "uint256",
          "name": "_id",
          "type": "uint256"
        },
        {
          "internalType": "address",
          "name": "_seller",
          "type": "address"
        }
      ],
      "name": "endAuction",
      "outputs": [],
      "stateMutability": "nonpayable",
      "type": "function"
    },
    {
      "inputs": [
        {
          "internalType": "address",
          "name": "_tokenAddress",
          "type": "address"
        },
        {
          "internalType": "uint256",
          "name": "_amount",
          "type": "uint256"
        },
        {
          "internalType": "address",
          "name": "_creator",
          "type": "address"
        },
        {
          "internalType": "uint256",
          "name": "_minBid",
          "type": "uint256"
        },
        {
          "internalType": "uint256",
          "name": "_endTime",
          "type": "uint256"
        },
        {
          "internalType": "string",
          "name": "_uri",
          "type": "string"
        },
        {
          "internalType": "uint256",
          "name": "_auctionId",
          "type": "uint256"
        },
        {
          "internalType": "bytes",
          "name": "_signature",
          "type": "bytes"
        }
      ],
      "name": "endAuctionLazy",
      "outputs": [],
      "stateMutability": "payable",
      "type": "function"
    },
    {
      "inputs": [
        {
          "internalType": "address",
          "name": "",
          "type": "address"
        },
        {
          "internalType": "uint256",
          "name": "",
          "type": "uint256"
        },
        {
          "internalType": "address",
          "name": "",
          "type": "address"
        }
      ],
      "name": "fixedItems",
      "outputs": [
        {
          "internalType": "uint256",
          "name": "amount",
          "type": "uint256"
        },
        {
          "internalType": "uint256",
          "name": "price",
          "type": "uint256"
        }
      ],
      "stateMutability": "view",
      "type": "function"
    },
    {
      "inputs": [
        {
          "internalType": "uint256",
          "name": "",
          "type": "uint256"
        }
      ],
      "name": "lazyAuctions",
      "outputs": [
        {
          "internalType": "uint256",
          "name": "amount",
          "type": "uint256"
        },
        {
          "internalType": "uint256",
          "name": "maxBid",
          "type": "uint256"
        },
        {
          "internalType": "address",
          "name": "maxBidder",
          "type": "address"
        },
        {
          "internalType": "uint256",
          "name": "endTime",
          "type": "uint256"
        },
        {
          "internalType": "bool",
          "name": "ended",
          "type": "bool"
        }
      ],
      "stateMutability": "view",
      "type": "function"
    },
    {
      "inputs": [],
      "name": "marketPayee",
      "outputs": [
        {
          "internalType": "address",
          "name": "",
          "type": "address"
        }
      ],
      "stateMutability": "view",
      "type": "function"
    },
    {
      "inputs": [],
      "name": "marketPercent",
      "outputs": [
        {
          "internalType": "uint256",
          "name": "",
          "type": "uint256"
        }
      ],
      "stateMutability": "view",
      "type": "function"
    },
    {
      "inputs": [
        {
          "internalType": "address",
          "name": "",
          "type": "address"
        }
      ],
      "name": "pendingWithdraws",
      "outputs": [
        {
          "internalType": "uint256",
          "name": "",
          "type": "uint256"
        }
      ],
      "stateMutability": "view",
      "type": "function"
    },
    {
      "inputs": [
        {
          "internalType": "address",
          "name": "_address",
          "type": "address"
        },
        {
          "internalType": "uint256",
          "name": "_id",
          "type": "uint256"
        },
        {
          "internalType": "uint256",
          "name": "_amount",
          "type": "uint256"
        },
        {
          "internalType": "uint256",
          "name": "_minPrice",
          "type": "uint256"
        },
        {
          "internalType": "uint256",
          "name": "_endTime",
          "type": "uint256"
        }
      ],
      "name": "putOnAuction",
      "outputs": [],
      "stateMutability": "nonpayable",
      "type": "function"
    },
    {
      "inputs": [
        {
          "internalType": "address",
          "name": "_address",
          "type": "address"
        },
        {
          "internalType": "uint256",
          "name": "_id",
          "type": "uint256"
        },
        {
          "internalType": "uint256",
          "name": "_amount",
          "type": "uint256"
        },
        {
          "internalType": "uint256",
          "name": "_price",
          "type": "uint256"
        }
      ],
      "name": "putOnSale",
      "outputs": [],
      "stateMutability": "nonpayable",
      "type": "function"
    },
    {
      "inputs": [
        {
          "internalType": "address",
          "name": "",
          "type": "address"
        },
        {
          "internalType": "uint256",
          "name": "",
          "type": "uint256"
        },
        {
          "internalType": "address",
          "name": "",
          "type": "address"
        }
      ],
      "name": "saleType",
      "outputs": [
        {
          "internalType": "enum Exchange.SaleType",
          "name": "",
          "type": "uint8"
        }
      ],
      "stateMutability": "view",
      "type": "function"
    },
    {
      "inputs": [
        {
          "internalType": "address",
          "name": "_payee",
          "type": "address"
        }
      ],
      "name": "setMarketPayee",
      "outputs": [],
      "stateMutability": "nonpayable",
      "type": "function"
    },
    {
      "inputs": [
        {
          "internalType": "uint256",
          "name": "_percent",
          "type": "uint256"
        }
      ],
      "name": "setMarketPercent",
      "outputs": [],
      "stateMutability": "nonpayable",
      "type": "function"
    },
    {
      "inputs": [
        {
          "internalType": "address",
          "name": "_address",
          "type": "address"
        },
        {
          "internalType": "uint256",
          "name": "_id",
          "type": "uint256"
        }
      ],
      "name": "takeOffAuction",
      "outputs": [],
      "stateMutability": "nonpayable",
      "type": "function"
    },
    {
      "inputs": [
        {
          "internalType": "address",
          "name": "_tokenAddress",
          "type": "address"
        },
        {
          "internalType": "uint256",
          "name": "_amount",
          "type": "uint256"
        },
        {
          "internalType": "address",
          "name": "_creator",
          "type": "address"
        },
        {
          "internalType": "uint256",
          "name": "_minBid",
          "type": "uint256"
        },
        {
          "internalType": "uint256",
          "name": "_endTime",
          "type": "uint256"
        },
        {
          "internalType": "string",
          "name": "_uri",
          "type": "string"
        },
        {
          "internalType": "uint256",
          "name": "_auctionId",
          "type": "uint256"
        },
        {
          "internalType": "bytes",
          "name": "_signature",
          "type": "bytes"
        }
      ],
      "name": "takeOffAuctionLazy",
      "outputs": [],
      "stateMutability": "nonpayable",
      "type": "function"
    },
    {
      "inputs": [
        {
          "internalType": "address",
          "name": "_address",
          "type": "address"
        },
        {
          "internalType": "uint256",
          "name": "_id",
          "type": "uint256"
        }
      ],
      "name": "takeOffSale",
      "outputs": [],
      "stateMutability": "nonpayable",
      "type": "function"
    },
    {
      "inputs": [],
      "name": "withdraw",
      "outputs": [],
      "stateMutability": "nonpayable",
      "type": "function"
    }
  ],
  "bytecode": "0x60806040523480156200001157600080fd5b50604051620035c5380380620035c583398101604081905262000034916200005d565b600555600480546001600160a01b0319166001600160a01b039290921691909117905562000099565b600080604083850312156200007157600080fd5b82516001600160a01b03811681146200008957600080fd5b6020939093015192949293505050565b61351c80620000a96000396000f3fe6080604052600436106101355760003560e01c8063465e4337116100ab578063796e0b5a1161006f578063796e0b5a1461043a578063947234951461044d578063b3ffb7601461046d578063b4c63a0314610480578063cff3170b14610493578063fa14d481146104eb57600080fd5b8063465e43371461032b5780634ba71fac14610382578063525aa6bf146103cf5780635dc952c2146104075780635e7510001461042757600080fd5b80630fc7a169116100fd5780630fc7a169146101e557806312e28aa0146101f85780633ab54026146102185780633c0868f0146102b65780633ccfd60b146102f6578063460a38cb1461030b57600080fd5b806301210b6b1461013a57806301f259471461015c5780630556f4f31461017c5780630cd9ad30146101a55780630d6dacdf146101c5575b600080fd5b34801561014657600080fd5b5061015a610155366004612d26565b610518565b005b34801561016857600080fd5b5061015a610177366004612e60565b610873565b34801561018857600080fd5b5061019260055481565b6040519081526020015b60405180910390f35b3480156101b157600080fd5b5061015a6101c0366004612cb9565b610ad9565b3480156101d157600080fd5b5061015a6101e0366004612f5a565b610b25565b61015a6101f3366004612db0565b610e6c565b34801561020457600080fd5b5061015a610213366004612cfa565b61114a565b34801561022457600080fd5b5061027e610233366004612d26565b6002602081815260009485526040808620825293855283852090529083529120805460018201549282015460038301546004909301549193926001600160a01b039091169160ff1685565b6040805195865260208601949094526001600160a01b039092169284019290925260608301919091521515608082015260a00161019c565b3480156102c257600080fd5b506102e66102d1366004612fc0565b60076020526000908152604090205460ff1681565b604051901515815260200161019c565b34801561030257600080fd5b5061015a6112a3565b34801561031757600080fd5b5061015a610326366004612fc0565b611335565b34801561033757600080fd5b5061027e610346366004612fc0565b60066020526000908152604090208054600182015460028301546003840154600490940154929391926001600160a01b03909116919060ff1685565b34801561038e57600080fd5b506103c261039d366004612d26565b6000602081815293815260408082208552928152828120909352825290205460ff1681565b60405161019c9190613253565b3480156103db57600080fd5b506004546103ef906001600160a01b031681565b6040516001600160a01b03909116815260200161019c565b34801561041357600080fd5b5061015a610422366004612f1f565b611364565b61015a610435366004612d26565b611583565b61015a610448366004612e60565b611877565b34801561045957600080fd5b5061015a610468366004612cfa565b611c3c565b61015a61047b366004612d68565b611ca8565b61015a61048e366004612e60565b612055565b34801561049f57600080fd5b506104d66104ae366004612d26565b6001602081815260009485526040808620825293855283852090529083529120805491015482565b6040805192835260208301919091520161019c565b3480156104f757600080fd5b50610192610506366004612cb9565b60036020526000908152604090205481565b8260016001600160a01b0380861660009081526020818152604080832088845282528083209387168352929052205460ff16600181111561055b5761055b6134bb565b146105a45760405162461bcd60e51b81526020600482015260146024820152732a37b5b2b7103737ba1034b71030bab1ba34b7b760611b60448201526064015b60405180910390fd5b6001600160a01b03808516600090815260026020908152604080832087845282528083209386168352929052206004015460ff1615156001141561061a5760405162461bcd60e51b815260206004820152600d60248201526c105d58dd1a5bdb88195b991959609a1b604482015260640161059b565b6001600160a01b0384811660009081526002602090815260408083208784528252808320868516808552925291829020549151627eeac760e11b8152600481019190915260248101869052909183169062fdd58e9060440160206040518083038186803b15801561068a57600080fd5b505afa15801561069e573d6000803e3d6000fd5b505050506040513d601f19601f820116820180604052508101906106c29190612fd9565b10156107105760405162461bcd60e51b815260206004820152601e60248201527f53656c6c6572206e6f7420656e6f75676820746f6b656e20737570706c790000604482015260640161059b565b6001600160a01b03848116600090815260026020818152604080842088855282528084208786168552909152918290209081015490549151637921219560e11b81528484169363f242432a9361077093889392169189919060040161303d565b600060405180830381600087803b15801561078a57600080fd5b505af115801561079e573d6000803e3d6000fd5b5050506001600160a01b0380861660009081526002602090815260408083208884528252808320938716835292905220600101546107e29150859085908590612367565b6001600160a01b038481166000908152600260208181526040808420888552825280842087861685529091529182902060048101805460ff191660019081179091559181015482820154915493517f9759a92d44539ecf2e83312d1217471b39e25befce832d6a43164de4c2ce671295610865958b958b958b9590931693613075565b60405180910390a150505050565b60008a8a8a8a8a8a8a8a6040516020016108949897969594939291906131ce565b6040516020818303038152906040528051906020012090506108ef83838080601f0160208091040260200160405190810160405280939291908181526020018383808284376000920191909152508592508d91506125f39050565b61090b5760405162461bcd60e51b815260040161059b90613261565b60008481526007602052604090205460ff166109625760405162461bcd60e51b8152602060048201526016602482015275105550d51253d397d113d154d7d393d517d1561254d560521b604482015260640161059b565b60008481526006602052604090206004015460ff16156109bc5760405162461bcd60e51b8152602060048201526015602482015274105550d51253d397d053149150511657d153911151605a1b604482015260640161059b565b600084815260066020908152604080832060018101546002909101546001600160a01b031684526003909252909120546109f591612672565b600360006006600088815260200190815260200160002060020160009054906101000a90046001600160a01b03166001600160a01b03166001600160a01b03168152602001908152602001600020819055507fbb37a0b8751bfed3e9c1dca6e57fc48dbc8c6607ec9df31095e1072ef2dc8ffa8b858b6006600089815260200190815260200160002060020160009054906101000a90046001600160a01b0316600660008a8152602001908152602001600020600101548f600080604051610ac49897969594939291906130b9565b60405180910390a15050505050505050505050565b6004546001600160a01b03163314610b035760405162461bcd60e51b815260040161059b90613304565b600480546001600160a01b0319166001600160a01b0392909216919091179055565b604051627eeac760e11b815233600482015260248101859052859085908590839082906001600160a01b0383169062fdd58e9060440160206040518083038186803b158015610b7357600080fd5b505afa158015610b87573d6000803e3d6000fd5b505050506040513d601f19601f82011682018060405250810190610bab9190612fd9565b1015610bc95760405162461bcd60e51b815260040161059b906132cd565b60405163e985e9c560e01b815233600482018190523060248301528a918a919083906001600160a01b0382169063e985e9c59060440160206040518083038186803b158015610c1757600080fd5b505afa158015610c2b573d6000803e3d6000fd5b505050506040513d601f19601f82011682018060405250810190610c4f9190612f9e565b610c6b5760405162461bcd60e51b815260040161059b9061328c565b6001600160a01b038d1660009081526001602090815260408083208f8452825280832033845290915290205415610cdd5760405162461bcd60e51b8152602060048201526016602482015275546f6b656e20697320696e2066697865642073616c6560501b604482015260640161059b565b6001600160a01b038d166000908152602081815260408083208f84528252808320338452825291829020805460ff19166001908117909155825160a081019093528d835290820190610d30908d90612687565b815260200160006001600160a01b031681526020018a815260200160001515815250600260008f6001600160a01b03166001600160a01b0316815260200190815260200160002060008e81526020019081526020016000206000336001600160a01b03166001600160a01b03168152602001908152602001600020600082015181600001556020820151816001015560408201518160020160006101000a8154816001600160a01b0302191690836001600160a01b031602179055506060820151816003015560808201518160040160006101000a81548160ff0219169083151502179055509050507f374ad07874f8cd2d9da1821e3d0811f3f8a722b476a2926046365876ee5cb7fb8d8d338e8e60018f604051610e559796959493929190613103565b60405180910390a150505050505050505050505050565b6000898989898989604051602001610e899695949392919061314f565b604051602081830303815290604052805190602001209050610ee484848080601f0160208091040260200160405190810160405280939291908181526020018383808284376000920191909152508592508c91506125f39050565b610f005760405162461bcd60e51b815260040161059b90613261565b610f0a828861346f565b3414610f4d5760405162461bcd60e51b8152602060048201526012602482015271494e53554646494349454e545f46554e445360701b604482015260640161059b565b6040516334fe2a8d60e11b81528a906000906001600160a01b038316906369fc551a90610f84908d908f908d908d90600401613221565b602060405180830381600087803b158015610f9e57600080fd5b505af1158015610fb2573d6000803e3d6000fd5b505050506040513d601f19601f82011682018060405250810190610fd69190612fd9565b9050610fe2848c61348e565b6001600160a01b03808e16600090815260016020908152604080832086845282528083208f8516845290915290819020929092559051637921219560e11b81529083169063f242432a90611040908d90339086908a9060040161303d565b600060405180830381600087803b15801561105a57600080fd5b505af115801561106e573d6000803e3d6000fd5b50505050600061109561271061108f6005543461269390919063ffffffff16565b9061269f565b6004546040519192506001600160a01b03169082156108fc029083906000818181858888f193505050501580156110d0573d6000803e3d6000fd5b506001600160a01b038b166108fc6110e83484612687565b6040518115909202916000818181858888f19350505050158015611110573d6000803e3d6000fd5b507f15653aeaf314e9564b9ec17a9908d5b02cd3d7f3e44657084e30f11379e8afee8d838d888e33604051610e5596959493929190613196565b6001600160a01b0382166000908152600260209081526040808320848452825280832033845290915290206004015460ff16156111c25760405162461bcd60e51b815260206004820152601660248201527524ba32b69034b9903737ba1037b71030bab1ba34b7b760511b604482015260640161059b565b6001600160a01b0380831660009081526002602081815260408084208685528252808420338552825280842060048101805460ff191660019081179091558101549301549094168352600390529190205461121c91612672565b6001600160a01b038084166000908152600260208181526040808420878552825280842033808652908352818520909301549094168352600390528282209390935590517f9759a92d44539ecf2e83312d1217471b39e25befce832d6a43164de4c2ce67129261129792869286929190819081908190613075565b60405180910390a15050565b3360008181526003602052604080822054905181156108fc0292818181858888f193505050501580156112da573d6000803e3d6000fd5b5033600081815260036020908152604091829020548251938452908301527f7084f5476618d8e60b11ef0d7d3f06914655adb8793e28ff7f018d4c76d505d5910160405180910390a133600090815260036020526040812055565b6004546001600160a01b0316331461135f5760405162461bcd60e51b815260040161059b90613304565b600555565b604051627eeac760e11b815233600482015260248101849052849084908490839082906001600160a01b0383169062fdd58e9060440160206040518083038186803b1580156113b257600080fd5b505afa1580156113c6573d6000803e3d6000fd5b505050506040513d601f19601f820116820180604052508101906113ea9190612fd9565b10156114085760405162461bcd60e51b815260040161059b906132cd565b60405163e985e9c560e01b81523360048201819052306024830152899189919083906001600160a01b0382169063e985e9c59060440160206040518083038186803b15801561145657600080fd5b505afa15801561146a573d6000803e3d6000fd5b505050506040513d601f19601f8201168201806040525081019061148e9190612f9e565b6114aa5760405162461bcd60e51b815260040161059b9061328c565b6001600160a01b038c1660009081526002602090815260408083208e8452825280832033845290915281206004015460ff16151560011480159061151857506001600160a01b038d1660009081526002602090815260408083208f8452825280832033845290915290205415155b905080156115685760405162461bcd60e51b815260206004820152601860248201527f546f6b656e20697320696e2061756374696f6e2073616c650000000000000000604482015260640161059b565b6115748d8d8d8d6126ab565b50505050505050505050505050565b60016001600160a01b0380851660009081526020818152604080832087845282528083209386168352929052205460ff1660018111156115c5576115c56134bb565b146116095760405162461bcd60e51b81526020600482015260146024820152732a37b5b2b7103737ba1034b71030bab1ba34b7b760611b604482015260640161059b565b6001600160a01b03808416600090815260026020908152604080832086845282528083209385168352929052206004015460ff1615156001141561167f5760405162461bcd60e51b815260206004820152600d60248201526c105d58dd1a5bdb88195b991959609a1b604482015260640161059b565b6001600160a01b0380841660009081526002602090815260408083208684528252808320938516835292905220600301544211156116f15760405162461bcd60e51b815260206004820152600f60248201526e105d58dd1a5bdb88195e1c1a5c9959608a1b604482015260640161059b565b6001600160a01b03808416600090815260026020908152604080832086845282528083209385168352929052206001015434116117705760405162461bcd60e51b815260206004820152601d60248201527f546865726520616c726561647920697320612068696768657220626964000000604482015260640161059b565b6001600160a01b0380841660009081526002602081815260408084208785528252808420868616855282528084206001810154930154909416835260039052919020546117bc91612672565b6001600160a01b03848116600081815260026020818152604080842089855282528084208887168086528184528286209485018054909816865260038452828620989098553460019094018490559387905292815284546001600160a01b031916339081179095558251938452830187905290820193909352606081019190915260808101919091527f7aaaf9649d5f33a41e6d052db876b6253e362d6e6ff1317c04a67695b85845719060a00160405180910390a1505050565b60008a8a8a8a8a8a8a8a6040516020016118989897969594939291906131ce565b6040516020818303038152906040528051906020012090506118f383838080601f0160208091040260200160405190810160405280939291908181526020018383808284376000920191909152508592508d91506125f39050565b61190f5760405162461bcd60e51b815260040161059b90613261565b60008481526007602052604090205460ff166119665760405162461bcd60e51b8152602060048201526016602482015275105550d51253d397d113d154d7d393d517d1561254d560521b604482015260640161059b565b60008481526006602052604090206004015460ff16156119c05760405162461bcd60e51b8152602060048201526015602482015274105550d51253d397d053149150511657d153911151605a1b604482015260640161059b565b60008b90506000816001600160a01b03166369fc551a8c8e8b8b6040518563ffffffff1660e01b81526004016119f99493929190613221565b602060405180830381600087803b158015611a1357600080fd5b505af1158015611a27573d6000803e3d6000fd5b505050506040513d601f19601f82011682018060405250810190611a4b9190612fd9565b9050816001600160a01b031663f242432a8c600660008a815260200190815260200160002060020160009054906101000a90046001600160a01b031684600660008c8152602001908152602001600020600001546040518563ffffffff1660e01b8152600401611abe949392919061303d565b600060405180830381600087803b158015611ad857600080fd5b505af1158015611aec573d6000803e3d6000fd5b505050600087815260066020526040812060048101805460ff191660019081179091550154600554909250611b2a906127109061108f908590612693565b6004546040519192506001600160a01b03169082156108fc029083906000818181858888f19350505050158015611b65573d6000803e3d6000fd5b506001600160a01b038d166108fc611b7d8484612687565b6040518115909202916000818181858888f19350505050158015611ba5573d6000803e3d6000fd5b507fbb37a0b8751bfed3e9c1dca6e57fc48dbc8c6607ec9df31095e1072ef2dc8ffa8f848f600660008d815260200190815260200160002060020160009054906101000a90046001600160a01b031686600660008f81526020019081526020016000206000015460018a604051611c239897969594939291906130b9565b60405180910390a1505050505050505050505050505050565b6001600160a01b038216600090815260016020818152604080842085855282528084203380865292528084208481559092015491517f374ad07874f8cd2d9da1821e3d0811f3f8a722b476a2926046365876ee5cb7fb9361129793879387939092919082908190613103565b8360006001600160a01b0380871660009081526020818152604080832089845282528083209388168352929052205460ff166001811115611ceb57611ceb6134bb565b14611d315760405162461bcd60e51b815260206004820152601660248201527514d85b19481d1e5c19481a5cc81b9bdd08199a5e195960521b604482015260640161059b565b6001600160a01b038086166000908152600160209081526040808320888452825280832093871683529290522054821115611dae5760405162461bcd60e51b815260206004820152601860248201527f4e6f7420656e6f756768206974656d7320696e2073616c650000000000000000604482015260640161059b565b6001600160a01b0380861660009081526001602081815260408084208985528252808420948816845293905291902001543490611deb9084612693565b14611e385760405162461bcd60e51b815260206004820152601760248201527f4e6f7420656e6f7567682066756e6420746f2073656e64000000000000000000604482015260640161059b565b604051627eeac760e11b81526001600160a01b0384811660048301526024820186905283919083169062fdd58e9060440160206040518083038186803b158015611e8157600080fd5b505afa158015611e95573d6000803e3d6000fd5b505050506040513d601f19601f82011682018060405250810190611eb99190612fd9565b1015611f075760405162461bcd60e51b815260206004820152601e60248201527f53656c6c6572206e6f7420656e6f75676820746f6b656e20737570706c790000604482015260640161059b565b604051637921219560e11b81526001600160a01b0382169063f242432a90611f3990869033908990889060040161303d565b600060405180830381600087803b158015611f5357600080fd5b505af1158015611f67573d6000803e3d6000fd5b5050506001600160a01b038087166000908152600160209081526040808320898452825280832093881683529290522054611fa3915083612687565b6001600160a01b038087166000908152600160209081526040808320898452825280832093881683529290522055611fdd85858534612367565b6001600160a01b0380861660009081526001602081815260408084208985528252808420948816845293905290829020015490517f15653aeaf314e9564b9ec17a9908d5b02cd3d7f3e44657084e30f11379e8afee916120469188918891889188913390613196565b60405180910390a15050505050565b60008a8a8a8a8a8a8a8a6040516020016120769897969594939291906131ce565b6040516020818303038152906040528051906020012090506120d183838080601f0160208091040260200160405190810160405280939291908181526020018383808284376000920191909152508592508d91506125f39050565b6120ed5760405162461bcd60e51b815260040161059b90613261565b873410156121325760405162461bcd60e51b8152602060048201526012602482015271494e53554646494349454e545f46554e445360701b604482015260640161059b565b864211156121745760405162461bcd60e51b815260206004820152600f60248201526e105550d51253d397d1561412549151608a1b604482015260640161059b565b60008481526007602052604090205460ff1661222a5760008481526007602090815260408083208054600160ff199182168117909255825160a0810184528f81523481860190815233828601908152606083018f8152608084018981528d8a5260069098529590972091518255519281019290925593516002820180546001600160a01b0319166001600160a01b0390921691909117905590516003820155905160049091018054909216901515179055612310565b600084815260066020526040902060010154341161228a5760405162461bcd60e51b815260206004820152601d60248201527f546865726520616c726561647920697320612068696768657220626964000000604482015260640161059b565b600084815260066020908152604080832060018101546002909101546001600160a01b031684526003909252909120546122c391612672565b60008581526006602081815260408084206002810180546001600160a01b03168652600384529185209590955592889052523460019092019190915580546001600160a01b031916331790555b604080516001600160a01b03808e168252602082018790528b16918101919091523360608201523460808201527fb852e89172c753bc4372f8aa2577a8a1996c09c516a4e9f50b297ba3baceede99060a001610ac4565b604051636a4731c560e11b81526004810184905284906000906001600160a01b0383169063d48e638a9060240160206040518083038186803b1580156123ac57600080fd5b505afa1580156123c0573d6000803e3d6000fd5b505050506040513d601f19601f820116820180604052508101906123e49190612cdd565b9050826001600160a01b0382161561254c57604051631af9cf4960e01b8152600481018790526000906001600160a01b03851690631af9cf499060240160206040518083038186803b15801561243957600080fd5b505afa15801561244d573d6000803e3d6000fd5b505050506040513d601f19601f820116820180604052508101906124719190612fd9565b90506000846001600160a01b03166334ce10c46040518163ffffffff1660e01b815260040160206040518083038186803b1580156124ae57600080fd5b505afa1580156124c2573d6000803e3d6000fd5b505050506040513d601f19601f820116820180604052508101906124e69190612fd9565b905060006125026124f88360646133c7565b61108f8986612693565b6040519091506001600160a01b0386169082156108fc029083906000818181858888f1935050505015801561253b573d6000803e3d6000fd5b506125468482612687565b93505050505b600061256961271061108f6005548861269390919063ffffffff16565b6004546040519192506001600160a01b03169082156108fc029083906000818181858888f193505050501580156125a4573d6000803e3d6000fd5b506125af8282612687565b6040519092506001600160a01b0387169083156108fc029084906000818181858888f193505050501580156125e8573d6000803e3d6000fd5b505050505050505050565b6000816001600160a01b03166126608561265a866040517f19457468657265756d205369676e6564204d6573736167653a0a3332000000006020820152603c8101829052600090605c01604051602081830303815290604052805190602001209050919050565b906128ff565b6001600160a01b031614949350505050565b600061267e828461334a565b90505b92915050565b600061267e828461348e565b600061267e828461346f565b600061267e8284613362565b604051627eeac760e11b815233600482015260248101849052849084908490839082906001600160a01b0383169062fdd58e9060440160206040518083038186803b1580156126f957600080fd5b505afa15801561270d573d6000803e3d6000fd5b505050506040513d601f19601f820116820180604052508101906127319190612fd9565b101561274f5760405162461bcd60e51b815260040161059b906132cd565b60405163e985e9c560e01b81523360048201819052306024830152899189919083906001600160a01b0382169063e985e9c59060440160206040518083038186803b15801561279d57600080fd5b505afa1580156127b1573d6000803e3d6000fd5b505050506040513d601f19601f820116820180604052508101906127d59190612f9e565b6127f15760405162461bcd60e51b815260040161059b9061328c565b6001600160a01b038c166000908152602081815260408083208e845282528083203384529091528120805460ff1916600183021790555060405180604001604052808b81526020018a815250600160008e6001600160a01b03166001600160a01b0316815260200190815260200160002060008d81526020019081526020016000206000336001600160a01b03166001600160a01b0316815260200190815260200160002060008201518160000155602082015181600101559050507f374ad07874f8cd2d9da1821e3d0811f3f8a722b476a2926046365876ee5cb7fb8c8c338d8d6000806040516128e99796959493929190613103565b60405180910390a1505050505050505050505050565b600080600061290e8585612923565b9150915061291b81612993565b509392505050565b60008082516041141561295a5760208301516040840151606085015160001a61294e87828585612b51565b9450945050505061298c565b8251604014156129845760208301516040840151612979868383612c3e565b93509350505061298c565b506000905060025b9250929050565b60008160048111156129a7576129a76134bb565b14156129b05750565b60018160048111156129c4576129c46134bb565b1415612a125760405162461bcd60e51b815260206004820152601860248201527f45434453413a20696e76616c6964207369676e61747572650000000000000000604482015260640161059b565b6002816004811115612a2657612a266134bb565b1415612a745760405162461bcd60e51b815260206004820152601f60248201527f45434453413a20696e76616c6964207369676e6174757265206c656e67746800604482015260640161059b565b6003816004811115612a8857612a886134bb565b1415612ae15760405162461bcd60e51b815260206004820152602260248201527f45434453413a20696e76616c6964207369676e6174757265202773272076616c604482015261756560f01b606482015260840161059b565b6004816004811115612af557612af56134bb565b1415612b4e5760405162461bcd60e51b815260206004820152602260248201527f45434453413a20696e76616c6964207369676e6174757265202776272076616c604482015261756560f01b606482015260840161059b565b50565b6000807f7fffffffffffffffffffffffffffffff5d576e7357a4501ddfe92f46681b20a0831115612b885750600090506003612c35565b8460ff16601b14158015612ba057508460ff16601c14155b15612bb15750600090506004612c35565b6040805160008082526020820180845289905260ff881692820192909252606081018690526080810185905260019060a0016020604051602081039080840390855afa158015612c05573d6000803e3d6000fd5b5050604051601f1901519150506001600160a01b038116612c2e57600060019250925050612c35565b9150600090505b94509492505050565b6000806001600160ff1b03831681612c5b60ff86901c601b61334a565b9050612c6987828885612b51565b935093505050935093915050565b60008083601f840112612c8957600080fd5b50813567ffffffffffffffff811115612ca157600080fd5b60208301915083602082850101111561298c57600080fd5b600060208284031215612ccb57600080fd5b8135612cd6816134d1565b9392505050565b600060208284031215612cef57600080fd5b8151612cd6816134d1565b60008060408385031215612d0d57600080fd5b8235612d18816134d1565b946020939093013593505050565b600080600060608486031215612d3b57600080fd5b8335612d46816134d1565b9250602084013591506040840135612d5d816134d1565b809150509250925092565b60008060008060808587031215612d7e57600080fd5b8435612d89816134d1565b9350602085013592506040850135612da0816134d1565b9396929550929360600135925050565b600080600080600080600080600060e08a8c031215612dce57600080fd5b8935612dd9816134d1565b985060208a0135975060408a0135612df0816134d1565b965060608a0135955060808a013567ffffffffffffffff80821115612e1457600080fd5b612e208d838e01612c77565b909750955060a08c0135915080821115612e3957600080fd5b50612e468c828d01612c77565b9a9d999c50979a9699959894979660c00135949350505050565b6000806000806000806000806000806101008b8d031215612e8057600080fd5b8a35612e8b816134d1565b995060208b0135985060408b0135612ea2816134d1565b975060608b0135965060808b0135955060a08b013567ffffffffffffffff80821115612ecd57600080fd5b612ed98e838f01612c77565b909750955060c08d0135945060e08d0135915080821115612ef957600080fd5b50612f068d828e01612c77565b915080935050809150509295989b9194979a5092959850565b60008060008060808587031215612f3557600080fd5b8435612f40816134d1565b966020860135965060408601359560600135945092505050565b600080600080600060a08688031215612f7257600080fd5b8535612f7d816134d1565b97602087013597506040870135966060810135965060800135945092505050565b600060208284031215612fb057600080fd5b81518015158114612cd657600080fd5b600060208284031215612fd257600080fd5b5035919050565b600060208284031215612feb57600080fd5b5051919050565b6002811061301057634e487b7160e01b600052602160045260246000fd5b9052565b81835281816020850137506000828201602090810191909152601f909101601f19169091010190565b6001600160a01b0394851681529290931660208301526040820152606081019190915260a06080820181905260009082015260c00190565b6001600160a01b03978816815260208101969096529386166040860152919094166060840152608083019390935260a082019290925290151560c082015260e00190565b6001600160a01b03988916815260208101979097529487166040870152929095166060850152608084015260a083019390935291151560c082015260e08101919091526101000190565b6001600160a01b0388811682526020820188905286166040820152606081018590526080810184905260e0810161313d60a0830185612ff2565b8260c083015298975050505050505050565b6001600160a01b03878116825260208201879052851660408201526060810184905260a06080820181905260009061318a9083018486613014565b98975050505050505050565b6001600160a01b039687168152602081019590955292851660408501526060840191909152608083015290911660a082015260c00190565b600060018060a01b03808b16835289602084015280891660408401525086606083015285608083015260e060a083015261320c60e083018587613014565b90508260c08301529998505050505050505050565b60018060a01b0385168152836020820152606060408201526000613249606083018486613014565b9695505050505050565b602081016126818284612ff2565b602080825260119082015270494e56414c49445f5349474e415455524560781b604082015260600190565b60208082526021908201527f4d61726b6574206e6f74206861766520617070726f76616c206f6620746f6b656040820152603760f91b606082015260800190565b60208082526017908201527f4e6f7420656e6f75676820746f6b656e20737570706c79000000000000000000604082015260600190565b60208082526026908201527f4f6e6c7920746865206d61726b6574207061796565206368616e67652074686560408201526520706179656560d01b606082015260800190565b6000821982111561335d5761335d6134a5565b500190565b60008261337f57634e487b7160e01b600052601260045260246000fd5b500490565b600181815b808511156133bf5781600019048211156133a5576133a56134a5565b808516156133b257918102915b93841c9390800290613389565b509250929050565b600061267e83836000826133dd57506001612681565b816133ea57506000612681565b8160018114613400576002811461340a57613426565b6001915050612681565b60ff84111561341b5761341b6134a5565b50506001821b612681565b5060208310610133831016604e8410600b8410161715613449575081810a612681565b6134538383613384565b8060001904821115613467576134676134a5565b029392505050565b6000816000190483118215151615613489576134896134a5565b500290565b6000828210156134a0576134a06134a5565b500390565b634e487b7160e01b600052601160045260246000fd5b634e487b7160e01b600052602160045260246000fd5b6001600160a01b0381168114612b4e57600080fdfea2646970667358221220ac978abfd630c48c81526538666b36f89dd5c199c5dea98d11ef56c2e45e4ef964736f6c63430008070033",
  "linkReferences": {},
  "deployedLinkReferences": {}
}