{
  "_format": "hh-sol-artifact-1",
  "contractName": "ERC1155Collection",
  "sourceName": "contracts/ERC1155Collection.sol",
  "abi": [
    {
      "inputs": [
        {
          "internalType": "string",
          "name": "_name",
          "type": "string"
        },
        {
          "internalType": "string",
          "name": "_symbol",
          "type": "string"
        },
        {
          "internalType": "string",
          "name": "_uri",
          "type": "string"
        }
      ],
      "stateMutability": "nonpayable",
      "type": "constructor"
    },
    {
      "anonymous": false,
      "inputs": [
        {
          "indexed": true,
          "internalType": "address",
          "name": "account",
          "type": "address"
        },
        {
          "indexed": true,
          "internalType": "address",
          "name": "operator",
          "type": "address"
        },
        {
          "indexed": false,
          "internalType": "bool",
          "name": "approved",
          "type": "bool"
        }
      ],
      "name": "ApprovalForAll",
      "type": "event"
    },
    {
      "anonymous": false,
      "inputs": [
        {
          "indexed": true,
          "internalType": "address",
          "name": "previousOwner",
          "type": "address"
        },
        {
          "indexed": true,
          "internalType": "address",
          "name": "newOwner",
          "type": "address"
        }
      ],
      "name": "OwnershipTransferred",
      "type": "event"
    },
    {
      "anonymous": false,
      "inputs": [
        {
          "indexed": true,
          "internalType": "address",
          "name": "operator",
          "type": "address"
        },
        {
          "indexed": true,
          "internalType": "address",
          "name": "from",
          "type": "address"
        },
        {
          "indexed": true,
          "internalType": "address",
          "name": "to",
          "type": "address"
        },
        {
          "indexed": false,
          "internalType": "uint256[]",
          "name": "ids",
          "type": "uint256[]"
        },
        {
          "indexed": false,
          "internalType": "uint256[]",
          "name": "values",
          "type": "uint256[]"
        }
      ],
      "name": "TransferBatch",
      "type": "event"
    },
    {
      "anonymous": false,
      "inputs": [
        {
          "indexed": true,
          "internalType": "address",
          "name": "operator",
          "type": "address"
        },
        {
          "indexed": true,
          "internalType": "address",
          "name": "from",
          "type": "address"
        },
        {
          "indexed": true,
          "internalType": "address",
          "name": "to",
          "type": "address"
        },
        {
          "indexed": false,
          "internalType": "uint256",
          "name": "id",
          "type": "uint256"
        },
        {
          "indexed": false,
          "internalType": "uint256",
          "name": "value",
          "type": "uint256"
        }
      ],
      "name": "TransferSingle",
      "type": "event"
    },
    {
      "anonymous": false,
      "inputs": [
        {
          "indexed": false,
          "internalType": "string",
          "name": "value",
          "type": "string"
        },
        {
          "indexed": true,
          "internalType": "uint256",
          "name": "id",
          "type": "uint256"
        }
      ],
      "name": "URI",
      "type": "event"
    },
    {
      "inputs": [
        {
          "internalType": "address",
          "name": "account",
          "type": "address"
        },
        {
          "internalType": "uint256",
          "name": "id",
          "type": "uint256"
        }
      ],
      "name": "balanceOf",
      "outputs": [
        {
          "internalType": "uint256",
          "name": "",
          "type": "uint256"
        }
      ],
      "stateMutability": "view",
      "type": "function"
    },
    {
      "inputs": [
        {
          "internalType": "address[]",
          "name": "accounts",
          "type": "address[]"
        },
        {
          "internalType": "uint256[]",
          "name": "ids",
          "type": "uint256[]"
        }
      ],
      "name": "balanceOfBatch",
      "outputs": [
        {
          "internalType": "uint256[]",
          "name": "",
          "type": "uint256[]"
        }
      ],
      "stateMutability": "view",
      "type": "function"
    },
    {
      "inputs": [
        {
          "internalType": "address",
          "name": "account",
          "type": "address"
        },
        {
          "internalType": "uint256",
          "name": "id",
          "type": "uint256"
        },
        {
          "internalType": "uint256",
          "name": "value",
          "type": "uint256"
        }
      ],
      "name": "burn",
      "outputs": [],
      "stateMutability": "nonpayable",
      "type": "function"
    },
    {
      "inputs": [],
      "name": "contractURI",
      "outputs": [
        {
          "internalType": "string",
          "name": "",
          "type": "string"
        }
      ],
      "stateMutability": "view",
      "type": "function"
    },
    {
      "inputs": [
        {
          "internalType": "address",
          "name": "_initialOwner",
          "type": "address"
        },
        {
          "internalType": "uint256",
          "name": "_initialSupply",
          "type": "uint256"
        },
        {
          "internalType": "string",
          "name": "_uri",
          "type": "string"
        }
      ],
      "name": "create",
      "outputs": [
        {
          "internalType": "uint256",
          "name": "",
          "type": "uint256"
        }
      ],
      "stateMutability": "payable",
      "type": "function"
    },
    {
      "inputs": [
        {
          "internalType": "uint256",
          "name": "",
          "type": "uint256"
        }
      ],
      "name": "creators",
      "outputs": [
        {
          "internalType": "address",
          "name": "",
          "type": "address"
        }
      ],
      "stateMutability": "view",
      "type": "function"
    },
    {
      "inputs": [
        {
          "internalType": "uint256",
          "name": "_id",
          "type": "uint256"
        }
      ],
      "name": "getCreator",
      "outputs": [
        {
          "internalType": "address",
          "name": "",
          "type": "address"
        }
      ],
      "stateMutability": "view",
      "type": "function"
    },
    {
      "inputs": [],
      "name": "getDecimal",
      "outputs": [
        {
          "internalType": "uint256",
          "name": "",
          "type": "uint256"
        }
      ],
      "stateMutability": "view",
      "type": "function"
    },
    {
      "inputs": [
        {
          "internalType": "uint256",
          "name": "_id",
          "type": "uint256"
        }
      ],
      "name": "getRoyalty",
      "outputs": [
        {
          "internalType": "uint256",
          "name": "",
          "type": "uint256"
        }
      ],
      "stateMutability": "view",
      "type": "function"
    },
    {
      "inputs": [
        {
          "internalType": "address",
          "name": "account",
          "type": "address"
        },
        {
          "internalType": "address",
          "name": "operator",
          "type": "address"
        }
      ],
      "name": "isApprovedForAll",
      "outputs": [
        {
          "internalType": "bool",
          "name": "",
          "type": "bool"
        }
      ],
      "stateMutability": "view",
      "type": "function"
    },
    {
      "inputs": [],
      "name": "name",
      "outputs": [
        {
          "internalType": "string",
          "name": "",
          "type": "string"
        }
      ],
      "stateMutability": "view",
      "type": "function"
    },
    {
      "inputs": [],
      "name": "owner",
      "outputs": [
        {
          "internalType": "address",
          "name": "",
          "type": "address"
        }
      ],
      "stateMutability": "view",
      "type": "function"
    },
    {
      "inputs": [],
      "name": "renounceOwnership",
      "outputs": [],
      "stateMutability": "nonpayable",
      "type": "function"
    },
    {
      "inputs": [
        {
          "internalType": "uint256",
          "name": "",
          "type": "uint256"
        }
      ],
      "name": "royalties",
      "outputs": [
        {
          "internalType": "uint256",
          "name": "",
          "type": "uint256"
        }
      ],
      "stateMutability": "view",
      "type": "function"
    },
    {
      "inputs": [
        {
          "internalType": "address",
          "name": "from",
          "type": "address"
        },
        {
          "internalType": "address",
          "name": "to",
          "type": "address"
        },
        {
          "internalType": "uint256[]",
          "name": "ids",
          "type": "uint256[]"
        },
        {
          "internalType": "uint256[]",
          "name": "amounts",
          "type": "uint256[]"
        },
        {
          "internalType": "bytes",
          "name": "data",
          "type": "bytes"
        }
      ],
      "name": "safeBatchTransferFrom",
      "outputs": [],
      "stateMutability": "nonpayable",
      "type": "function"
    },
    {
      "inputs": [
        {
          "internalType": "address",
          "name": "from",
          "type": "address"
        },
        {
          "internalType": "address",
          "name": "to",
          "type": "address"
        },
        {
          "internalType": "uint256",
          "name": "id",
          "type": "uint256"
        },
        {
          "internalType": "uint256",
          "name": "amount",
          "type": "uint256"
        },
        {
          "internalType": "bytes",
          "name": "data",
          "type": "bytes"
        }
      ],
      "name": "safeTransferFrom",
      "outputs": [],
      "stateMutability": "nonpayable",
      "type": "function"
    },
    {
      "inputs": [
        {
          "internalType": "address",
          "name": "operator",
          "type": "address"
        },
        {
          "internalType": "bool",
          "name": "approved",
          "type": "bool"
        }
      ],
      "name": "setApprovalForAll",
      "outputs": [],
      "stateMutability": "nonpayable",
      "type": "function"
    },
    {
      "inputs": [
        {
          "internalType": "uint256",
          "name": "_id",
          "type": "uint256"
        },
        {
          "internalType": "uint256",
          "name": "royalty",
          "type": "uint256"
        }
      ],
      "name": "setRoyalty",
      "outputs": [],
      "stateMutability": "nonpayable",
      "type": "function"
    },
    {
      "inputs": [
        {
          "internalType": "bytes4",
          "name": "interfaceId",
          "type": "bytes4"
        }
      ],
      "name": "supportsInterface",
      "outputs": [
        {
          "internalType": "bool",
          "name": "",
          "type": "bool"
        }
      ],
      "stateMutability": "view",
      "type": "function"
    },
    {
      "inputs": [],
      "name": "symbol",
      "outputs": [
        {
          "internalType": "string",
          "name": "",
          "type": "string"
        }
      ],
      "stateMutability": "view",
      "type": "function"
    },
    {
      "inputs": [
        {
          "internalType": "uint256",
          "name": "",
          "type": "uint256"
        }
      ],
      "name": "tokenSupply",
      "outputs": [
        {
          "internalType": "uint256",
          "name": "",
          "type": "uint256"
        }
      ],
      "stateMutability": "view",
      "type": "function"
    },
    {
      "inputs": [
        {
          "internalType": "address",
          "name": "newOwner",
          "type": "address"
        }
      ],
      "name": "transferOwnership",
      "outputs": [],
      "stateMutability": "nonpayable",
      "type": "function"
    },
    {
      "inputs": [
        {
          "internalType": "uint256",
          "name": "_id",
          "type": "uint256"
        }
      ],
      "name": "uri",
      "outputs": [
        {
          "internalType": "string",
          "name": "",
          "type": "string"
        }
      ],
      "stateMutability": "view",
      "type": "function"
    },
    {
      "inputs": [
        {
          "internalType": "uint256",
          "name": "",
          "type": "uint256"
        }
      ],
      "name": "uris",
      "outputs": [
        {
          "internalType": "string",
          "name": "",
          "type": "string"
        }
      ],
      "stateMutability": "view",
      "type": "function"
    }
  ],
  "bytecode": "0x60806040526002600c553480156200001657600080fd5b50604051620040a3380380620040a383398181016040528101906200003c91906200030f565b8282604051806020016040528060008152506200005f81620000ed60201b60201c565b5062000080620000746200010960201b60201c565b6200011160201b60201c565b620000976004620001d760201b620012c21760201c565b8160089080519060200190620000af929190620001ed565b508060099080519060200190620000c8929190620001ed565b50505080600a9080519060200190620000e3929190620001ed565b5050505062000520565b806002908051906020019062000105929190620001ed565b5050565b600033905090565b6000600360009054906101000a900473ffffffffffffffffffffffffffffffffffffffff16905081600360006101000a81548173ffffffffffffffffffffffffffffffffffffffff021916908373ffffffffffffffffffffffffffffffffffffffff1602179055508173ffffffffffffffffffffffffffffffffffffffff168173ffffffffffffffffffffffffffffffffffffffff167f8be0079c531659141344cd1fd0a4f28419497f9722a3daafe3b4186f6b6457e060405160405180910390a35050565b6001816000016000828254019250508190555050565b828054620001fb9062000445565b90600052602060002090601f0160209004810192826200021f57600085556200026b565b82601f106200023a57805160ff19168380011785556200026b565b828001600101855582156200026b579182015b828111156200026a5782518255916020019190600101906200024d565b5b5090506200027a91906200027e565b5090565b5b80821115620002995760008160009055506001016200027f565b5090565b6000620002b4620002ae84620003d9565b620003b0565b905082815260208101848484011115620002cd57600080fd5b620002da8482856200040f565b509392505050565b600082601f830112620002f457600080fd5b8151620003068482602086016200029d565b91505092915050565b6000806000606084860312156200032557600080fd5b600084015167ffffffffffffffff8111156200034057600080fd5b6200034e86828701620002e2565b935050602084015167ffffffffffffffff8111156200036c57600080fd5b6200037a86828701620002e2565b925050604084015167ffffffffffffffff8111156200039857600080fd5b620003a686828701620002e2565b9150509250925092565b6000620003bc620003cf565b9050620003ca82826200047b565b919050565b6000604051905090565b600067ffffffffffffffff821115620003f757620003f6620004e0565b5b62000402826200050f565b9050602081019050919050565b60005b838110156200042f57808201518184015260208101905062000412565b838111156200043f576000848401525b50505050565b600060028204905060018216806200045e57607f821691505b60208210811415620004755762000474620004b1565b5b50919050565b62000486826200050f565b810181811067ffffffffffffffff82111715620004a857620004a7620004e0565b5b80604052505050565b7f4e487b7100000000000000000000000000000000000000000000000000000000600052602260045260246000fd5b7f4e487b7100000000000000000000000000000000000000000000000000000000600052604160045260246000fd5b6000601f19601f8301169050919050565b613b7380620005306000396000f3fe60806040526004361061014a5760003560e01c80637f77f574116100b6578063d48e638a1161006f578063d48e638a146104e2578063e8a3d4851461051f578063e985e9c51461054a578063f242432a14610587578063f2fde38b146105b0578063f5298aca146105d95761014a565b80637f77f574146103c05780638da5cb5b146103fd578063933a6f0d1461042857806395d89b4114610451578063a22cb4651461047c578063cd53d08e146104a55761014a565b80632693ebf2116101085780632693ebf2146102ab5780632eb2c2d6146102e857806334ce10c4146103115780634e1273f41461033c57806369fc551a14610379578063715018a6146103a95761014a565b8062fdd58e1461014f57806301ffc9a71461018c57806306fdde03146101c95780630e89341c146101f45780631253c546146102315780631af9cf491461026e575b600080fd5b34801561015b57600080fd5b50610176600480360381019061017191906128b8565b610602565b6040516101839190613199565b60405180910390f35b34801561019857600080fd5b506101b360048036038101906101ae9190612a1b565b6106cb565b6040516101c09190612f5c565b60405180910390f35b3480156101d557600080fd5b506101de6107ad565b6040516101eb9190612f77565b60405180910390f35b34801561020057600080fd5b5061021b60048036038101906102169190612a6d565b61083b565b6040516102289190612f77565b60405180910390f35b34801561023d57600080fd5b5061025860048036038101906102539190612a6d565b6108e0565b6040516102659190612f77565b60405180910390f35b34801561027a57600080fd5b5061029560048036038101906102909190612a6d565b610980565b6040516102a29190613199565b60405180910390f35b3480156102b757600080fd5b506102d260048036038101906102cd9190612a6d565b61099d565b6040516102df9190613199565b60405180910390f35b3480156102f457600080fd5b5061030f600480360381019061030a919061272e565b6109b5565b005b34801561031d57600080fd5b50610326610a56565b6040516103339190613199565b60405180910390f35b34801561034857600080fd5b50610363600480360381019061035e91906129af565b610a60565b6040516103709190612f03565b60405180910390f35b610393600480360381019061038e91906128f4565b610c11565b6040516103a09190613199565b60405180910390f35b3480156103b557600080fd5b506103be610cde565b005b3480156103cc57600080fd5b506103e760048036038101906103e29190612a6d565b610d66565b6040516103f49190613199565b60405180910390f35b34801561040957600080fd5b50610412610d7e565b60405161041f9190612e26565b60405180910390f35b34801561043457600080fd5b5061044f600480360381019061044a9190612a96565b610da8565b005b34801561045d57600080fd5b50610466610e67565b6040516104739190612f77565b60405180910390f35b34801561048857600080fd5b506104a3600480360381019061049e919061287c565b610ef5565b005b3480156104b157600080fd5b506104cc60048036038101906104c79190612a6d565b610f0b565b6040516104d99190612e26565b60405180910390f35b3480156104ee57600080fd5b5061050960048036038101906105049190612a6d565b610f3e565b6040516105169190612e26565b60405180910390f35b34801561052b57600080fd5b50610534610f7b565b6040516105419190612f77565b60405180910390f35b34801561055657600080fd5b50610571600480360381019061056c91906126f2565b611009565b60405161057e9190612f5c565b60405180910390f35b34801561059357600080fd5b506105ae60048036038101906105a991906127ed565b61109d565b005b3480156105bc57600080fd5b506105d760048036038101906105d291906126c9565b61113e565b005b3480156105e557600080fd5b5061060060048036038101906105fb9190612960565b611236565b005b60008073ffffffffffffffffffffffffffffffffffffffff168373ffffffffffffffffffffffffffffffffffffffff161415610673576040517f08c379a000000000000000000000000000000000000000000000000000000000815260040161066a90612fd9565b60405180910390fd5b60008083815260200190815260200160002060008473ffffffffffffffffffffffffffffffffffffffff1673ffffffffffffffffffffffffffffffffffffffff16815260200190815260200160002054905092915050565b60007fd9b67a26000000000000000000000000000000000000000000000000000000007bffffffffffffffffffffffffffffffffffffffffffffffffffffffff1916827bffffffffffffffffffffffffffffffffffffffffffffffffffffffff1916148061079657507f0e89341c000000000000000000000000000000000000000000000000000000007bffffffffffffffffffffffffffffffffffffffffffffffffffffffff1916827bffffffffffffffffffffffffffffffffffffffffffffffffffffffff1916145b806107a657506107a5826112d8565b5b9050919050565b600880546107ba90613408565b80601f01602080910402602001604051908101604052809291908181526020018280546107e690613408565b80156108335780601f1061080857610100808354040283529160200191610833565b820191906000526020600020905b81548152906001019060200180831161081657829003601f168201915b505050505081565b606060076000838152602001908152602001600020805461085b90613408565b80601f016020809104026020016040519081016040528092919081815260200182805461088790613408565b80156108d45780601f106108a9576101008083540402835291602001916108d4565b820191906000526020600020905b8154815290600101906020018083116108b757829003601f168201915b50505050509050919050565b600760205280600052604060002060009150905080546108ff90613408565b80601f016020809104026020016040519081016040528092919081815260200182805461092b90613408565b80156109785780601f1061094d57610100808354040283529160200191610978565b820191906000526020600020905b81548152906001019060200180831161095b57829003601f168201915b505050505081565b6000600b6000838152602001908152602001600020549050919050565b60066020528060005260406000206000915090505481565b6109bd611342565b73ffffffffffffffffffffffffffffffffffffffff168573ffffffffffffffffffffffffffffffffffffffff161480610a035750610a02856109fd611342565b611009565b5b610a42576040517f08c379a0000000000000000000000000000000000000000000000000000000008152600401610a3990613079565b60405180910390fd5b610a4f858585858561134a565b5050505050565b6000600c54905090565b60608151835114610aa6576040517f08c379a0000000000000000000000000000000000000000000000000000000008152600401610a9d90613119565b60405180910390fd5b6000835167ffffffffffffffff811115610ae9577f4e487b7100000000000000000000000000000000000000000000000000000000600052604160045260246000fd5b604051908082528060200260200182016040528015610b175781602001602082028036833780820191505090505b50905060005b8451811015610c0657610bb0858281518110610b62577f4e487b7100000000000000000000000000000000000000000000000000000000600052603260045260246000fd5b6020026020010151858381518110610ba3577f4e487b7100000000000000000000000000000000000000000000000000000000600052603260045260246000fd5b6020026020010151610602565b828281518110610be9577f4e487b7100000000000000000000000000000000000000000000000000000000600052603260045260246000fd5b60200260200101818152505080610bff9061346b565b9050610b1d565b508091505092915050565b600080610c1e60046116aa565b9050610c2a60046112c2565b610c45868287604051806020016040528060008152506116b8565b846006600083815260200190815260200160002081905550336005600083815260200190815260200160002060006101000a81548173ffffffffffffffffffffffffffffffffffffffff021916908373ffffffffffffffffffffffffffffffffffffffff1602179055508383600760008481526020019081526020016000209190610cd19291906123df565b5080915050949350505050565b610ce6611342565b73ffffffffffffffffffffffffffffffffffffffff16610d04610d7e565b73ffffffffffffffffffffffffffffffffffffffff1614610d5a576040517f08c379a0000000000000000000000000000000000000000000000000000000008152600401610d51906130d9565b60405180910390fd5b610d64600061184e565b565b600b6020528060005260406000206000915090505481565b6000600360009054906101000a900473ffffffffffffffffffffffffffffffffffffffff16905090565b813373ffffffffffffffffffffffffffffffffffffffff166005600083815260200190815260200160002060009054906101000a900473ffffffffffffffffffffffffffffffffffffffff1673ffffffffffffffffffffffffffffffffffffffff1614610e4a576040517f08c379a0000000000000000000000000000000000000000000000000000000008152600401610e4190613179565b60405180910390fd5b81600b600085815260200190815260200160002081905550505050565b60098054610e7490613408565b80601f0160208091040260200160405190810160405280929190818152602001828054610ea090613408565b8015610eed5780601f10610ec257610100808354040283529160200191610eed565b820191906000526020600020905b815481529060010190602001808311610ed057829003601f168201915b505050505081565b610f07610f00611342565b8383611914565b5050565b60056020528060005260406000206000915054906101000a900473ffffffffffffffffffffffffffffffffffffffff1681565b60006005600083815260200190815260200160002060009054906101000a900473ffffffffffffffffffffffffffffffffffffffff169050919050565b600a8054610f8890613408565b80601f0160208091040260200160405190810160405280929190818152602001828054610fb490613408565b80156110015780601f10610fd657610100808354040283529160200191611001565b820191906000526020600020905b815481529060010190602001808311610fe457829003601f168201915b505050505081565b6000600160008473ffffffffffffffffffffffffffffffffffffffff1673ffffffffffffffffffffffffffffffffffffffff16815260200190815260200160002060008373ffffffffffffffffffffffffffffffffffffffff1673ffffffffffffffffffffffffffffffffffffffff16815260200190815260200160002060009054906101000a900460ff16905092915050565b6110a5611342565b73ffffffffffffffffffffffffffffffffffffffff168573ffffffffffffffffffffffffffffffffffffffff1614806110eb57506110ea856110e5611342565b611009565b5b61112a576040517f08c379a000000000000000000000000000000000000000000000000000000000815260040161112190613039565b60405180910390fd5b6111378585858585611a81565b5050505050565b611146611342565b73ffffffffffffffffffffffffffffffffffffffff16611164610d7e565b73ffffffffffffffffffffffffffffffffffffffff16146111ba576040517f08c379a00000000000000000000000000000000000000000000000000000000081526004016111b1906130d9565b60405180910390fd5b600073ffffffffffffffffffffffffffffffffffffffff168173ffffffffffffffffffffffffffffffffffffffff16141561122a576040517f08c379a000000000000000000000000000000000000000000000000000000000815260040161122190612ff9565b60405180910390fd5b6112338161184e565b50565b61123e611342565b73ffffffffffffffffffffffffffffffffffffffff1661125c610d7e565b73ffffffffffffffffffffffffffffffffffffffff16146112b2576040517f08c379a00000000000000000000000000000000000000000000000000000000081526004016112a9906130d9565b60405180910390fd5b6112bd838383611d03565b505050565b6001816000016000828254019250508190555050565b60007f01ffc9a7000000000000000000000000000000000000000000000000000000007bffffffffffffffffffffffffffffffffffffffffffffffffffffffff1916827bffffffffffffffffffffffffffffffffffffffffffffffffffffffff1916149050919050565b600033905090565b815183511461138e576040517f08c379a000000000000000000000000000000000000000000000000000000000815260040161138590613139565b60405180910390fd5b600073ffffffffffffffffffffffffffffffffffffffff168473ffffffffffffffffffffffffffffffffffffffff1614156113fe576040517f08c379a00000000000000000000000000000000000000000000000000000000081526004016113f590613059565b60405180910390fd5b6000611408611342565b9050611418818787878787611f20565b60005b845181101561161557600085828151811061145f577f4e487b7100000000000000000000000000000000000000000000000000000000600052603260045260246000fd5b6020026020010151905060008583815181106114a4577f4e487b7100000000000000000000000000000000000000000000000000000000600052603260045260246000fd5b60200260200101519050600080600084815260200190815260200160002060008b73ffffffffffffffffffffffffffffffffffffffff1673ffffffffffffffffffffffffffffffffffffffff16815260200190815260200160002054905081811015611545576040517f08c379a000000000000000000000000000000000000000000000000000000000815260040161153c906130b9565b60405180910390fd5b81810360008085815260200190815260200160002060008c73ffffffffffffffffffffffffffffffffffffffff1673ffffffffffffffffffffffffffffffffffffffff168152602001908152602001600020819055508160008085815260200190815260200160002060008b73ffffffffffffffffffffffffffffffffffffffff1673ffffffffffffffffffffffffffffffffffffffff16815260200190815260200160002060008282546115fa91906132fc565b925050819055505050508061160e9061346b565b905061141b565b508473ffffffffffffffffffffffffffffffffffffffff168673ffffffffffffffffffffffffffffffffffffffff168273ffffffffffffffffffffffffffffffffffffffff167f4a39dc06d4c0dbc64b70af90fd698a233a518aa5d07e595d983b8c0526c8f7fb878760405161168c929190612f25565b60405180910390a46116a2818787878787611f28565b505050505050565b600081600001549050919050565b600073ffffffffffffffffffffffffffffffffffffffff168473ffffffffffffffffffffffffffffffffffffffff161415611728576040517f08c379a000000000000000000000000000000000000000000000000000000000815260040161171f90613159565b60405180910390fd5b6000611732611342565b9050611753816000876117448861210f565b61174d8861210f565b87611f20565b8260008086815260200190815260200160002060008773ffffffffffffffffffffffffffffffffffffffff1673ffffffffffffffffffffffffffffffffffffffff16815260200190815260200160002060008282546117b291906132fc565b925050819055508473ffffffffffffffffffffffffffffffffffffffff16600073ffffffffffffffffffffffffffffffffffffffff168273ffffffffffffffffffffffffffffffffffffffff167fc3d58168c5ae7397731d063d5bbf3d657854427343f4c083240f7aacaa2d0f6287876040516118309291906131b4565b60405180910390a4611847816000878787876121d5565b5050505050565b6000600360009054906101000a900473ffffffffffffffffffffffffffffffffffffffff16905081600360006101000a81548173ffffffffffffffffffffffffffffffffffffffff021916908373ffffffffffffffffffffffffffffffffffffffff1602179055508173ffffffffffffffffffffffffffffffffffffffff168173ffffffffffffffffffffffffffffffffffffffff167f8be0079c531659141344cd1fd0a4f28419497f9722a3daafe3b4186f6b6457e060405160405180910390a35050565b8173ffffffffffffffffffffffffffffffffffffffff168373ffffffffffffffffffffffffffffffffffffffff161415611983576040517f08c379a000000000000000000000000000000000000000000000000000000000815260040161197a906130f9565b60405180910390fd5b80600160008573ffffffffffffffffffffffffffffffffffffffff1673ffffffffffffffffffffffffffffffffffffffff16815260200190815260200160002060008473ffffffffffffffffffffffffffffffffffffffff1673ffffffffffffffffffffffffffffffffffffffff16815260200190815260200160002060006101000a81548160ff0219169083151502179055508173ffffffffffffffffffffffffffffffffffffffff168373ffffffffffffffffffffffffffffffffffffffff167f17307eab39ab6107e8899845ad3d59bd9653f200f220920489ca2b5937696c3183604051611a749190612f5c565b60405180910390a3505050565b600073ffffffffffffffffffffffffffffffffffffffff168473ffffffffffffffffffffffffffffffffffffffff161415611af1576040517f08c379a0000000000000000000000000000000000000000000000000000000008152600401611ae890613059565b60405180910390fd5b6000611afb611342565b9050611b1b818787611b0c8861210f565b611b158861210f565b87611f20565b600080600086815260200190815260200160002060008873ffffffffffffffffffffffffffffffffffffffff1673ffffffffffffffffffffffffffffffffffffffff16815260200190815260200160002054905083811015611bb2576040517f08c379a0000000000000000000000000000000000000000000000000000000008152600401611ba9906130b9565b60405180910390fd5b83810360008087815260200190815260200160002060008973ffffffffffffffffffffffffffffffffffffffff1673ffffffffffffffffffffffffffffffffffffffff168152602001908152602001600020819055508360008087815260200190815260200160002060008873ffffffffffffffffffffffffffffffffffffffff1673ffffffffffffffffffffffffffffffffffffffff1681526020019081526020016000206000828254611c6791906132fc565b925050819055508573ffffffffffffffffffffffffffffffffffffffff168773ffffffffffffffffffffffffffffffffffffffff168373ffffffffffffffffffffffffffffffffffffffff167fc3d58168c5ae7397731d063d5bbf3d657854427343f4c083240f7aacaa2d0f628888604051611ce49291906131b4565b60405180910390a4611cfa8288888888886121d5565b50505050505050565b600073ffffffffffffffffffffffffffffffffffffffff168373ffffffffffffffffffffffffffffffffffffffff161415611d73576040517f08c379a0000000000000000000000000000000000000000000000000000000008152600401611d6a90613099565b60405180910390fd5b6000611d7d611342565b9050611dad81856000611d8f8761210f565b611d988761210f565b60405180602001604052806000815250611f20565b600080600085815260200190815260200160002060008673ffffffffffffffffffffffffffffffffffffffff1673ffffffffffffffffffffffffffffffffffffffff16815260200190815260200160002054905082811015611e44576040517f08c379a0000000000000000000000000000000000000000000000000000000008152600401611e3b90613019565b60405180910390fd5b82810360008086815260200190815260200160002060008773ffffffffffffffffffffffffffffffffffffffff1673ffffffffffffffffffffffffffffffffffffffff16815260200190815260200160002081905550600073ffffffffffffffffffffffffffffffffffffffff168573ffffffffffffffffffffffffffffffffffffffff168373ffffffffffffffffffffffffffffffffffffffff167fc3d58168c5ae7397731d063d5bbf3d657854427343f4c083240f7aacaa2d0f628787604051611f119291906131b4565b60405180910390a45050505050565b505050505050565b611f478473ffffffffffffffffffffffffffffffffffffffff166123bc565b15612107578373ffffffffffffffffffffffffffffffffffffffff1663bc197c8187878686866040518663ffffffff1660e01b8152600401611f8d959493929190612e41565b602060405180830381600087803b158015611fa757600080fd5b505af1925050508015611fd857506040513d601f19601f82011682018060405250810190611fd59190612a44565b60015b61207e57611fe4613541565b806308c379a014156120415750611ff9613a4b565b806120045750612043565b806040517f08c379a00000000000000000000000000000000000000000000000000000000081526004016120389190612f77565b60405180910390fd5b505b6040517f08c379a000000000000000000000000000000000000000000000000000000000815260040161207590612f99565b60405180910390fd5b63bc197c8160e01b7bffffffffffffffffffffffffffffffffffffffffffffffffffffffff1916817bffffffffffffffffffffffffffffffffffffffffffffffffffffffff191614612105576040517f08c379a00000000000000000000000000000000000000000000000000000000081526004016120fc90612fb9565b60405180910390fd5b505b505050505050565b60606000600167ffffffffffffffff811115612154577f4e487b7100000000000000000000000000000000000000000000000000000000600052604160045260246000fd5b6040519080825280602002602001820160405280156121825781602001602082028036833780820191505090505b50905082816000815181106121c0577f4e487b7100000000000000000000000000000000000000000000000000000000600052603260045260246000fd5b60200260200101818152505080915050919050565b6121f48473ffffffffffffffffffffffffffffffffffffffff166123bc565b156123b4578373ffffffffffffffffffffffffffffffffffffffff1663f23a6e6187878686866040518663ffffffff1660e01b815260040161223a959493929190612ea9565b602060405180830381600087803b15801561225457600080fd5b505af192505050801561228557506040513d601f19601f820116820180604052508101906122829190612a44565b60015b61232b57612291613541565b806308c379a014156122ee57506122a6613a4b565b806122b157506122f0565b806040517f08c379a00000000000000000000000000000000000000000000000000000000081526004016122e59190612f77565b60405180910390fd5b505b6040517f08c379a000000000000000000000000000000000000000000000000000000000815260040161232290612f99565b60405180910390fd5b63f23a6e6160e01b7bffffffffffffffffffffffffffffffffffffffffffffffffffffffff1916817bffffffffffffffffffffffffffffffffffffffffffffffffffffffff1916146123b2576040517f08c379a00000000000000000000000000000000000000000000000000000000081526004016123a990612fb9565b60405180910390fd5b505b505050505050565b6000808273ffffffffffffffffffffffffffffffffffffffff163b119050919050565b8280546123eb90613408565b90600052602060002090601f01602090048101928261240d5760008555612454565b82601f1061242657803560ff1916838001178555612454565b82800160010185558215612454579182015b82811115612453578235825591602001919060010190612438565b5b5090506124619190612465565b5090565b5b8082111561247e576000816000905550600101612466565b5090565b600061249561249084613202565b6131dd565b905080838252602082019050828560208602820111156124b457600080fd5b60005b858110156124e457816124ca8882612598565b8452602084019350602083019250506001810190506124b7565b5050509392505050565b60006125016124fc8461322e565b6131dd565b9050808382526020820190508285602086028201111561252057600080fd5b60005b85811015612550578161253688826126b4565b845260208401935060208301925050600181019050612523565b5050509392505050565b600061256d6125688461325a565b6131dd565b90508281526020810184848401111561258557600080fd5b6125908482856133c6565b509392505050565b6000813590506125a781613ae1565b92915050565b600082601f8301126125be57600080fd5b81356125ce848260208601612482565b91505092915050565b600082601f8301126125e857600080fd5b81356125f88482602086016124ee565b91505092915050565b60008135905061261081613af8565b92915050565b60008135905061262581613b0f565b92915050565b60008151905061263a81613b0f565b92915050565b600082601f83011261265157600080fd5b813561266184826020860161255a565b91505092915050565b60008083601f84011261267c57600080fd5b8235905067ffffffffffffffff81111561269557600080fd5b6020830191508360018202830111156126ad57600080fd5b9250929050565b6000813590506126c381613b26565b92915050565b6000602082840312156126db57600080fd5b60006126e984828501612598565b91505092915050565b6000806040838503121561270557600080fd5b600061271385828601612598565b925050602061272485828601612598565b9150509250929050565b600080600080600060a0868803121561274657600080fd5b600061275488828901612598565b955050602061276588828901612598565b945050604086013567ffffffffffffffff81111561278257600080fd5b61278e888289016125d7565b935050606086013567ffffffffffffffff8111156127ab57600080fd5b6127b7888289016125d7565b925050608086013567ffffffffffffffff8111156127d457600080fd5b6127e088828901612640565b9150509295509295909350565b600080600080600060a0868803121561280557600080fd5b600061281388828901612598565b955050602061282488828901612598565b9450506040612835888289016126b4565b9350506060612846888289016126b4565b925050608086013567ffffffffffffffff81111561286357600080fd5b61286f88828901612640565b9150509295509295909350565b6000806040838503121561288f57600080fd5b600061289d85828601612598565b92505060206128ae85828601612601565b9150509250929050565b600080604083850312156128cb57600080fd5b60006128d985828601612598565b92505060206128ea858286016126b4565b9150509250929050565b6000806000806060858703121561290a57600080fd5b600061291887828801612598565b9450506020612929878288016126b4565b935050604085013567ffffffffffffffff81111561294657600080fd5b6129528782880161266a565b925092505092959194509250565b60008060006060848603121561297557600080fd5b600061298386828701612598565b9350506020612994868287016126b4565b92505060406129a5868287016126b4565b9150509250925092565b600080604083850312156129c257600080fd5b600083013567ffffffffffffffff8111156129dc57600080fd5b6129e8858286016125ad565b925050602083013567ffffffffffffffff811115612a0557600080fd5b612a11858286016125d7565b9150509250929050565b600060208284031215612a2d57600080fd5b6000612a3b84828501612616565b91505092915050565b600060208284031215612a5657600080fd5b6000612a648482850161262b565b91505092915050565b600060208284031215612a7f57600080fd5b6000612a8d848285016126b4565b91505092915050565b60008060408385031215612aa957600080fd5b6000612ab7858286016126b4565b9250506020612ac8858286016126b4565b9150509250929050565b6000612ade8383612e08565b60208301905092915050565b612af381613352565b82525050565b6000612b048261329b565b612b0e81856132c9565b9350612b198361328b565b8060005b83811015612b4a578151612b318882612ad2565b9750612b3c836132bc565b925050600181019050612b1d565b5085935050505092915050565b612b6081613364565b82525050565b6000612b71826132a6565b612b7b81856132da565b9350612b8b8185602086016133d5565b612b9481613563565b840191505092915050565b6000612baa826132b1565b612bb481856132eb565b9350612bc48185602086016133d5565b612bcd81613563565b840191505092915050565b6000612be56034836132eb565b9150612bf082613581565b604082019050919050565b6000612c086028836132eb565b9150612c13826135d0565b604082019050919050565b6000612c2b602b836132eb565b9150612c368261361f565b604082019050919050565b6000612c4e6026836132eb565b9150612c598261366e565b604082019050919050565b6000612c716024836132eb565b9150612c7c826136bd565b604082019050919050565b6000612c946029836132eb565b9150612c9f8261370c565b604082019050919050565b6000612cb76025836132eb565b9150612cc28261375b565b604082019050919050565b6000612cda6032836132eb565b9150612ce5826137aa565b604082019050919050565b6000612cfd6023836132eb565b9150612d08826137f9565b604082019050919050565b6000612d20602a836132eb565b9150612d2b82613848565b604082019050919050565b6000612d436020836132eb565b9150612d4e82613897565b602082019050919050565b6000612d666029836132eb565b9150612d71826138c0565b604082019050919050565b6000612d896029836132eb565b9150612d948261390f565b604082019050919050565b6000612dac6028836132eb565b9150612db78261395e565b604082019050919050565b6000612dcf6021836132eb565b9150612dda826139ad565b604082019050919050565b6000612df26031836132eb565b9150612dfd826139fc565b604082019050919050565b612e11816133bc565b82525050565b612e20816133bc565b82525050565b6000602082019050612e3b6000830184612aea565b92915050565b600060a082019050612e566000830188612aea565b612e636020830187612aea565b8181036040830152612e758186612af9565b90508181036060830152612e898185612af9565b90508181036080830152612e9d8184612b66565b90509695505050505050565b600060a082019050612ebe6000830188612aea565b612ecb6020830187612aea565b612ed86040830186612e17565b612ee56060830185612e17565b8181036080830152612ef78184612b66565b90509695505050505050565b60006020820190508181036000830152612f1d8184612af9565b905092915050565b60006040820190508181036000830152612f3f8185612af9565b90508181036020830152612f538184612af9565b90509392505050565b6000602082019050612f716000830184612b57565b92915050565b60006020820190508181036000830152612f918184612b9f565b905092915050565b60006020820190508181036000830152612fb281612bd8565b9050919050565b60006020820190508181036000830152612fd281612bfb565b9050919050565b60006020820190508181036000830152612ff281612c1e565b9050919050565b6000602082019050818103600083015261301281612c41565b9050919050565b6000602082019050818103600083015261303281612c64565b9050919050565b6000602082019050818103600083015261305281612c87565b9050919050565b6000602082019050818103600083015261307281612caa565b9050919050565b6000602082019050818103600083015261309281612ccd565b9050919050565b600060208201905081810360008301526130b281612cf0565b9050919050565b600060208201905081810360008301526130d281612d13565b9050919050565b600060208201905081810360008301526130f281612d36565b9050919050565b6000602082019050818103600083015261311281612d59565b9050919050565b6000602082019050818103600083015261313281612d7c565b9050919050565b6000602082019050818103600083015261315281612d9f565b9050919050565b6000602082019050818103600083015261317281612dc2565b9050919050565b6000602082019050818103600083015261319281612de5565b9050919050565b60006020820190506131ae6000830184612e17565b92915050565b60006040820190506131c96000830185612e17565b6131d66020830184612e17565b9392505050565b60006131e76131f8565b90506131f3828261343a565b919050565b6000604051905090565b600067ffffffffffffffff82111561321d5761321c613512565b5b602082029050602081019050919050565b600067ffffffffffffffff82111561324957613248613512565b5b602082029050602081019050919050565b600067ffffffffffffffff82111561327557613274613512565b5b61327e82613563565b9050602081019050919050565b6000819050602082019050919050565b600081519050919050565b600081519050919050565b600081519050919050565b6000602082019050919050565b600082825260208201905092915050565b600082825260208201905092915050565b600082825260208201905092915050565b6000613307826133bc565b9150613312836133bc565b9250827fffffffffffffffffffffffffffffffffffffffffffffffffffffffffffffffff03821115613347576133466134b4565b5b828201905092915050565b600061335d8261339c565b9050919050565b60008115159050919050565b60007fffffffff0000000000000000000000000000000000000000000000000000000082169050919050565b600073ffffffffffffffffffffffffffffffffffffffff82169050919050565b6000819050919050565b82818337600083830152505050565b60005b838110156133f35780820151818401526020810190506133d8565b83811115613402576000848401525b50505050565b6000600282049050600182168061342057607f821691505b60208210811415613434576134336134e3565b5b50919050565b61344382613563565b810181811067ffffffffffffffff8211171561346257613461613512565b5b80604052505050565b6000613476826133bc565b91507fffffffffffffffffffffffffffffffffffffffffffffffffffffffffffffffff8214156134a9576134a86134b4565b5b600182019050919050565b7f4e487b7100000000000000000000000000000000000000000000000000000000600052601160045260246000fd5b7f4e487b7100000000000000000000000000000000000000000000000000000000600052602260045260246000fd5b7f4e487b7100000000000000000000000000000000000000000000000000000000600052604160045260246000fd5b600060033d11156135605760046000803e61355d600051613574565b90505b90565b6000601f19601f8301169050919050565b60008160e01c9050919050565b7f455243313135353a207472616e7366657220746f206e6f6e204552433131353560008201527f526563656976657220696d706c656d656e746572000000000000000000000000602082015250565b7f455243313135353a204552433131353552656365697665722072656a6563746560008201527f6420746f6b656e73000000000000000000000000000000000000000000000000602082015250565b7f455243313135353a2062616c616e636520717565727920666f7220746865207a60008201527f65726f2061646472657373000000000000000000000000000000000000000000602082015250565b7f4f776e61626c653a206e6577206f776e657220697320746865207a65726f206160008201527f6464726573730000000000000000000000000000000000000000000000000000602082015250565b7f455243313135353a206275726e20616d6f756e7420657863656564732062616c60008201527f616e636500000000000000000000000000000000000000000000000000000000602082015250565b7f455243313135353a2063616c6c6572206973206e6f74206f776e6572206e6f7260008201527f20617070726f7665640000000000000000000000000000000000000000000000602082015250565b7f455243313135353a207472616e7366657220746f20746865207a65726f20616460008201527f6472657373000000000000000000000000000000000000000000000000000000602082015250565b7f455243313135353a207472616e736665722063616c6c6572206973206e6f742060008201527f6f776e6572206e6f7220617070726f7665640000000000000000000000000000602082015250565b7f455243313135353a206275726e2066726f6d20746865207a65726f206164647260008201527f6573730000000000000000000000000000000000000000000000000000000000602082015250565b7f455243313135353a20696e73756666696369656e742062616c616e636520666f60008201527f72207472616e7366657200000000000000000000000000000000000000000000602082015250565b7f4f776e61626c653a2063616c6c6572206973206e6f7420746865206f776e6572600082015250565b7f455243313135353a2073657474696e6720617070726f76616c2073746174757360008201527f20666f722073656c660000000000000000000000000000000000000000000000602082015250565b7f455243313135353a206163636f756e747320616e6420696473206c656e67746860008201527f206d69736d617463680000000000000000000000000000000000000000000000602082015250565b7f455243313135353a2069647320616e6420616d6f756e7473206c656e6774682060008201527f6d69736d61746368000000000000000000000000000000000000000000000000602082015250565b7f455243313135353a206d696e7420746f20746865207a65726f2061646472657360008201527f7300000000000000000000000000000000000000000000000000000000000000602082015250565b7f455243313135355472616461626c652363726561746f724f6e6c793a204f4e4c60008201527f595f43524541544f525f414c4c4f574544000000000000000000000000000000602082015250565b600060443d1015613a5b57613ade565b613a636131f8565b60043d036004823e80513d602482011167ffffffffffffffff82111715613a8b575050613ade565b808201805167ffffffffffffffff811115613aa95750505050613ade565b80602083010160043d038501811115613ac6575050505050613ade565b613ad58260200185018661343a565b82955050505050505b90565b613aea81613352565b8114613af557600080fd5b50565b613b0181613364565b8114613b0c57600080fd5b50565b613b1881613370565b8114613b2357600080fd5b50565b613b2f816133bc565b8114613b3a57600080fd5b5056fea2646970667358221220c120d0c00fde42fe1a43e26e1f161a8ef2fa9afe0ffb3b6e4571043a98cea9b664736f6c63430008040033",
  "linkReferences": {},
  "deployedLinkReferences": {}
}